:100000000A128A11D32FFF1B0D2883137F18831721
:100010000008840A0319FF0A080000308A00040857
:10002000840A820700343134323433344134343476
:1000300035343634423437343834393443342A345E
:100040003034233444344B3465347934703461347F
:100050006434203444347234693476346534723410
:08006000003425346334003440
:10067400080000342434F4344A3464008001840AC9
:100684000406031900340406402B70088312031374
:10069400D8007108D70057088400F0308313800015
:1006A40058088400FF308000080070088312031388
:1006B400D6007108D5007208D4007308D3007408FA
:1006C400D2007508D1007608D00008007730831670
:1006D40003138F008B138316031789018230F100F3
:1006E400DD30F000F00B742BF10B742B792B080028
:1006F400F6007608F50004300310F50CFF3E031DE8
:100704007E2B75080A128A11AF240A128A11760800
:100714000A128A11AF240A128A110800F001831206
:10072400031355080A128A1153240A128A1101303C
:100734000A128A117A230A128A110630F80030301C
:10074400F700F70BA32BF80BA32B00000800F10014
:100754007108043EF2008312031358088400013028
:10076400F000720AB72B0310F00DFF3E031DB52BEA
:100774007008831300050319C02BC22B0130C32B4F
:100784000030F30073080800F30004307302031808
:10079400CC2BCD2BE72B043070020318D22BD32B98
:1007A400E72B7308F10002300310F10DFF3E031D27
:1007B400D62B01307107F2007008720784000A1208
:1007C4008A110D200A128A11E82B003008008312C6
:1007D40003132808AA00FB2B2608A0002708A10061
:1007E4002A30A2002908A3000A128A11B4250A1289
:1007F4008A11831203132A0884000A128A110D2015
:100804000A128A11003A031D082C092CEE2BA601AA
:10081400A70108002D3083120313B0002B08B10088
:100824000030B200B301B401BA01BB013130A600FB
:100834000030A7002C08A8003030A9000A128A1141
:10084400E9230A128A118312031333082B07AF001A
:100854002F088400831380010800F001831203131E
:1008640054080A128A1153240A128A11392CF001ED
:10087400F00A8312031354080A128A1153240A1229
:100884008A11442CF0018312031354080A128A11AA
:1008940053240A128A114230F300F30B4F2C000048
:1008A4000800F20070080319582C592C6A2C831282
:1008B4000313560884000130F100720A632C0310FC
:1008C400F10DFF3E031D612C7108831380047B2C02
:1008D40083120313560884000130F100720A742C49
:1008E4000310F10DFF3E031D722C7108FF3A8313B0
:1008F40080050800F001F00A8312031355080A1258
:100904008A1153240A128A11F9019B2C790877075A
:10091400840078080318780AFF000A128A11032059
:100924000A128A110A128A117A230A128A110130D0
:10093400F90779087707840078080318780A83127E
:100944000313FF000A128A1103200A128A11003AC3
:10095400031DAD2CAE2C882C0800F4007408F000A4
:100964000130F0058312031353080A128A11532429
:100974000A128A117408F0000230F005831203137E
:1009840052080A128A1153240A128A117408F000B8
:100994000430F0058312031351080A128A115324F8
:1009A4000A128A117408F0000830F0058312031348
:1009B40050080A128A1153240A128A110A128A113F
:1009C4002F240A128A110800F800F001831203137D
:1009D40055080A128A1153240A128A11112D780813
:1009E4007F3E0A128A117A230A128A111F2D78086F
:1009F400BF3E0A128A117A230A128A111F2D78081F
:100A0400933E0A128A117A230A128A111F2D78083A
:100A1400D33E0A128A117A230A128A111F2D7708EB
:100A2400013A0319F12C033A0319F92C013A031979
:100A3400012D073A0319092D1F2D080083160313EE
:100A440088018312031388010830F000F101F201D8
:100A5400F20A0430F3000530F4000630F5000730E4
:100A6400F6000A128A1157230A128A110230F90079
:100A740010300A128A1133270A128A11F701F70A71
:100A840001300A128A11E6240A128A1102308312F2
:100A94000313A2000430A100B930A000A00B502D14
:100AA400A10B502DA20B502D572D1130F700803083
:100AB400F8000A128A117C240A128A110230F70003
:100AC40001300A128A11E6240A128A1108000A1255
:100AD4008A1168230A128A110A128A1120250A121D
:100AE4008A110630F0008630F1000A128A11472379
:100AF4000A128A110A128A1120260A128A118312F2
:100B04000313C90049080319882D892D7C2D3F3012
:100B1400AB001F30AC004908BC00BD013C08AD006F
:100B24003D08AE000A128A110C240A128A113F30C1
:100B3400F7000030F8000A128A117C240A128A1184
:100B4400033083120313BE008A30BD005530BC004D
:100B5400BC0BAA2DBD0BAA2DBE0BAA2D7C2D0A12EF
:100B64008A110028831203132208840083130008C7
:100B740084000A128A110D200A128A11253A031DD3
:100B8400C42DC52D062E2208840001308007CA0119
:100B9400CB010030CE00FF30CC00FF30CD00220866
:100BA4008400000884000A128A110D200A128A1196
:100BB400633A031DDE2DDF2DFE2D22088400013053
:100BC4008007230884000008A4000230800724085A
:100BD40084000008FD007D08A400A5012408F0009D
:100BE4002508F1002008F2002108F3000A128A11F6
:100BF40099260A128A111F2E8312031322088400D5
:100C04000130831380071F2E22088400000884000B
:100C14000A128A110D200A128A11A400A5012408BF
:100C2400F0002508F1002008F2002108F3000A1260
:100C34008A1199260A128A11FE2D0800F6018312E0
:100C4400031358088400831300080F38F40058086D
:100C5400840074088000580884000130F400760A87
:100C6400352E0310F40DFF3E031D332E7408FF3A96
:100C74000005F50058088400750880000630F5006A
:100C84003030F400F40B442EF50B442E0000F70131
:100C940077080A128A11A9230A128A11003A031941
:100CA400542E552E722E3430F500F130F400F40B2E
:100CB400592EF50B592E5E2E77080A128A11A92394
:100CC4000A128A11003A031D682E692E5E2E7708D7
:100CD400F00076080A128A11C6230A128A11982E85
:100CE4000130F70704307702031C792E7A2E4A2E3E
:100CF40083120313580884000130F400760A842E0A
:100D04000310F40DFF3E031D822E740883130004A8
:100D1400F50058088400750880000130F607043097
:100D24007602031C962E972E212E0030080072089E
:100D3400730403199E2E9F2EA52E72087304031D9F
:100D4400A42EA52EAC2E70080A128A113A230A1278
:100D54008A11322F7208093EF40073080318013E09
:100D6400003EF500740884008317751C8313000883
:100D7400F600840A0008F700760877040319C32EE6
:100D8400C42EF62E7208093EF40073080318013EBF
:100D9400003EF500740884008317751C8313000853
:100DA400F600840A0008F7007208023EF80073088F
:100DB4000318013E003EF900780884008317791C6B
:100DC40083130008FA00840A0008FB007B08803AB9
:100DD400FC007708803A7C02031DF22E76087A0222
:100DE4000318F52EF62E322F720884008317731C15
:100DF40083130008F400840A0008F5007208023E18
:100E0400F60073080318013E003EF70076088400DC
:100E14008317771C831300087407F9007508F8001A
:100E24000318F80A801F172FF8037808FA007908C6
:100E3400840083177A1C8313700880007208023EB2
:100E4400F40073080318013E003EF50074088400A2
:100E54008317751C831301308007840A0318800AE2
:100E640008002030FD00F0018312031355080A1214
:100E74008A1153240A128A11F001831203135408AD
:100E84000A128A1153240A128A11F00183120313DD
:100E940053080A128A1153240A128A11F001831288
:100EA400031352080A128A1153240A128A11F001F8
:100EB4008312031351080A128A1153240A128A1145
:100EC400F0018312031350080A128A1153240A12E0
:100ED4008A111530FC004B30FB00BE30FA00FA0BCF
:100EE400712FFB0B712FFC0B712F00000230790264
:100EF400031C7D2F7E2F7F2FFD1503300A128A11CC
:100F0400AF240A128A110D30FB00FB30FA00FA0BF1
:100F1400892FFB0B892F8E2F03300A128A11AF24DD
:100F24000A128A118530FA00FA0B962F03300A123E
:100F34008A11AF240A128A114230FA00FA0BA02F48
:100F4400000002300A128A11AF240A128A114230B8
:100F5400FA00FA0BAB2F00007D080A128A117A23DB
:100F64000A128A110C300A128A117A230A128A117F
:100F74000A128A1190230A128A1106300A128A115F
:100F84007A230A128A110630FB003030FA00FA0B79
:100F9400C92FFB0BC92F00000C3083120313CF00A1
:100FA40008000A128A113B230A128A11D9000A1274
:100FB4008A113C230A128A11DA000A128A113D238B
:100FC4000A128A11DB000A128A113E230A128A11BC
:100FD400DC008313A0308400C0300A128A113F233E
:100FE4000A128A114A30840059300A128A113F23A6
:0C0FF4000A128A1183010A128A11692D69
:04400E00C420FF3E8D
:00000001FF
